:100000000C942A000C9434000C9434000C943400AA
:100010000C9434000C9434000C9434000C94340090
:100020000C9434000C9434000C9434000C94340080
:100030000C9434000C9434000C9434000C94340070
:100040000C9434000C9434000C9434000C94340060
:100050000C94340011241FBECFE5D4E0DEBFCDBF29
:100060000E9487000C9499000C940000982F907FB8
:10007000292F246025BB2FEF24BB95BB14BA30E198
:10008000839FC0011124982F946095BB24BB85BB2E
:1000900014BA15BA85E88A95F1F700000895982FEB
:1000A000907F292F2C6025BB2FEF24BB986095BB38
:1000B00014BA30E1839FC0011124982F9C6095BB36
:1000C00024BB886085BB14BA15BA85E88A95F1F718
:1000D000000008952FE788E391E021508040904090
:1000E000E1F700C0000084E285BB8FEF84BB80E2B3
:1000F00085BB14BA88E20E9436008CE00E9436006C
:1001000081E00E94360080E00E94360008950E943F
:100110006A0081E40E944F0081E40E944F0081E464
:100120000E944F0081E40E944F0081E40E944F0032
:06013000FFCFF894FFCFA1
:00000001FF
